:020000040800F2
:1000000000000120050300080B030008110300088D
:1000100033030008390300085B03000800000000F8
:100020000000000000000000000000007D03000848
:100030008303000800000000890300088F03000804
:10004000AD030008AD030008AD030008AD030008D0
:10005000AD030008AD030008AD030008AD030008C0
:10006000AD030008AD030008AD030008AD030008B0
:10007000AD030008AD030008AD030008AD030008A0
:10008000AD030008AD030008AD0300080000000048
:10009000000000000000000000000000AD030008A8
:1000A000AD030008AD030008AD030008AD03000870
:1000B000AD030008AD030008AD030008AD03000860
:1000C000AD030008AD030008AD030008AD03000850
:1000D000AD030008AD030008AD03000800000000F8
:1000E000AD030008AD030008AD03000800000000E8
:1000F000000000000000000000000000AD03000848
:1001000000000000AD030008AD030008AD030008C7
:1001100000000000000000000000000000000000DF
:10012000AD030008AD030008AD030008AD030008EF
:10013000AD03000800000000000000000000000007
:10014000000000000000000000000000AD030008F7
:10015000AD030008AD030008AD030008AD030008BF
:10016000AD030008AD03000800000000000000001F
:10017000000000000000000000000000000000007F
:1001800000000000AD0300080000000000000000B7
:10019000AD03000880B596B000AF00F037F94F4BC3
:1001A0007B6524E07B6D1A1D7A651B683B647B6D63
:1001B0001A1D7A651B68FB637B6D1A1D7A651B68C7
:1001C000BB633B6C7B63FB6B3B63BB6BFB623B6B5F
:1001D000BB6207E07A6B131D7B63BB6A191DB962B2
:1001E00012681A60FA6ABB6A9A42F3D800BF7B6D44
:1001F0003B4A9342D6D33B4B3B651AE03B6D1A1DFD
:100200003A651B68BB643B6D1A1D3A651B687B64CD
:10021000BB6C7B627B6C3B627B6AFB6104E0FB69CD
:100220001A1DFA6100221A603A6AFB699A42F6D8EE
:1002300000BF3B6D2C4A9342E0D300F0F5F83A1D25
:1002400007F108031146184600F0CEF8274A284B5C
:10025000D31A9B103B610023FB6007E0244AFB6834
:1002600052F823309847FB680133FB603A69FB681A
:100270009A42F3DC1F4A204BD31A9B103B610023A8
:10028000FB6007E01C4AFB6852F823309847FB6884
:100290000133FB603A69FB689A42F3DC00BFBB683C
:1002A0007A681146184600F06BF9F864134A144B4B
:1002B000D31A9B10BB61BB697B6108E07B69013B82
:1002C0000F4A52F8233098477B69013B7B617B6979
:1002D000002BF3DC00BFF86C00F080F8B4030008DA
:1002E000CC030008CC030008DC030008DC03000892
:1002F000DC030008DC030008DC030008DC03000862
:10030000DC0300082548004700BF80B400AFFEE7CB
:100310001EF0040F0CBFEFF30880EFF30980714665
:100320001F4A104700BF80B483B000AF78603960C7
:10033000FEE780B400AFFEE71EF0040F0CBFEFF342
:100340000880EFF309807146164A104700BF80B459
:1003500083B000AF78603960FEE71EF0040F0CBF79
:10036000EFF30880EFF3098071460F4A104700BF92
:1003700080B483B000AF78603960FEE780B400AF2E
:10038000FEE780B400AFFEE780B400AFFEE780B4C4
:1003900000AF00BFBD4680BC70470000950100085B
:1003A000270300084F0300087103000880B400AF62
:0203B000FEE766
:1003B400B0070008000000200C000020B00700086F
:1003C40000000010000000100C00002010000020AD
:0803D400000000100000001001
:1003DC0080B582B000AF786000F03CF880B483B098
:1003EC0000AF786039607B6801221A603B68034A71
:1003FC001A6000BF0C37BD4680BC7047000000205F
:10040C0080B500AF00F02AF8024B034A9A6000BF97
:10041C0080BD00BF00ED00E00000000880B500AF1B
:10042C0000F028F800BF80BD80B400AFBFF34F8F41
:10043C0000BF064BDB6803F4E0620449044B134332
:10044C00CB60BFF34F8F00BF00BFFDE700ED00E0B6
:10045C000400FA0580B500AFFFF7E6FF80B400AFEB
:10046C00034B4FF000629A6000BFBD4680BC7047E2
:10047C0000ED00E080B487B000AF00233B610023A7
:10048C007B610223FB600023BB6002237B60344B47
:10049C009B6803F00C033B613B69082B11D03B6953
:1004AC00082B44D83B69002B03D03B69042B04D0A8
:1004BC003DE02C4B2C4A1A603DE02A4B2B4A1A602B
:1004CC0039E0274B5B689B0D03F00103BB60244BA9
:1004DC005B6803F03F037B60BB68002B0CD0234AA6
:1004EC007B68B2FBF3F31E4A52689209C2F308020E
:1004FC0002FB03F37B610BE01B4A7B68B2FBF3F35B
:10050C00174A52689209C2F3080202FB03F37B619B
:10051C00134B5B681B0C03F0030301335B00FB60A4
:10052C007A69FB68B2FBF3F30E4A136003E00D4BE0
:10053C000D4A1A6000BF0A4B9B681B0903F00F039E
:10054C000B4AD35C3B61074B1A683B6922FA03F3F5
:10055C00044A136000BF1C37BD4680BC704700BF07
:10056C0000380240080000200024F40000127A0039
:10057C00A007000880B487B000AF7E4B1B687D4A93
:10058C0043F0020313607C4B1B687B4A43F001036E
:10059C0013607A4B1B68794A23F0C0031360774BC6
:1005AC001B68764A43F480631360744B1B68734A70
:1005BC0043F480531360714B1B68704A43F48043BF
:1005CC0013606F4B1B686E4A43F0400313606D4B16
:1005DC001B686C4A23F0E003136001237B61012349
:1005EC00FB74694B1B6803F00803002B7FD1FB7C69
:1005FC00012B7CD10023FB6002E0FB680133FB6024
:10060C00FB68624A9342F8DD5F4B1B6803F00803FA
:10061C00002B6CD17B69013B062B69D801A252F8E7
:10062C0023F000BF4D06000861060008750600089F
:10063C00890600089D060008BD060008DD060008B6
:10064C00534B1B68524A43F0200313607B69013300
:10065C007B614DE04E4B1B684D4A43F040031360E9
:10066C007B6901337B6143E0494B1B68484A43F08B
:10067C00600313607B6901337B6139E0444B1B6879
:10068C00434A43F0800313607B6901337B612FE0A5
:10069C003F4B1B683E4A43F0200313603C4B1B68E6
:1006AC003B4A43F0800313607B6901337B611FE09D
:1006BC00374B1B68364A43F040031360344B1B68BE
:1006CC00334A43F0800313607B6901337B610FE095
:1006DC002F4B1B682E4A43F0200313602C4B1B68D6
:1006EC002B4A43F0C003136001237B6100E000BF81
:1006FC00254B1B6803F00803002B13D10023BB60B0
:10070C0002E0BB680133BB60BB68204A9342F8DD52
:10071C001D4B1B6803F00803002B7FF462AF002312
:10072C00FB745EE7184B1B6803F00803002B3FF4C7
:10073C0058AF00237B6002E07B6801337B607B68F1
:10074C00124A9342F8DD104B1B6803F00803002B90
:10075C003FF447AF0E4B1B680D4A23F06003136048
:10076C000B4B1B680A4A23F0800313600123FB74B4
:10077C0037E700BF30380240003802400004024026
:10078C000C04024004040240100402403F420F00DB
:10079C0014040240000000000000000001020304E9
:0407AC00060708092B
:0C07B0000C000020000000000024F400F9
:040000050800019559
:00000001FF
